:040000000201B9320E
:01000B0032C2
:0100130032BA
:01001B0032B2
:0100230032AA
:01002B0032A2
:0300330002035273
:01003B003292
:01004300328A
:01004B003282
:01005300327A
:01005B003272
:01006300326A
:03006B0002035538
:030073000208EE92
:03007B0002091364
:0300830002032B4A
:03008B0002037CF1
:030093000203A3C2
:03009B0002091443
:0300A3000209153A
:0300AB0002091631
:0300B30002091728
:0300BB000209181F
:0300C30002091916
:0300CB0002091A0D
:0300D30002091B04
:0300DB0002091CFB
:0300E30002091DF2
:0300EB0002091EE9
:0300F30002091FE0
:0300FB00020920D7
:03010300020921CD
:03010B00020922C4
:03011300020923BB
:03011B00020924B2
:03012300020925A9
:03012B00020926A0
:0301330002092797
:03013B000209288E
:0301430002092985
:03014B0002092A7C
:0301530002092B73
:03015B0002092C6A
:0301630002092D61
:03016B0002092E58
:0301730002092F4F
:03017B0002093046
:030183000209313D
:03018B0002093234
:030193000209332B
:03019B0002093422
:0301A30002093519
:0301AB0002093610
:0301B30002093707
:08021200C200C201C202C203D6
:030236000201B60C
:0301B60002023909
:1002390090E6007416F0E500D2E890E668E0FF74F5
:10024900084FF090E65CE0FF74014FF0E0FF741096
:100259004FF0E0FF74204FF0E0FF74084FF0D2DD5B
:100269001203CAD2AF90E680E0FF740A4FF09005FE
:10027900DC1214A790E680E0FF74F75FF01000022B
:100289008003120D29100102800675820112101FC8
:10029900100202800675820012101F100303020368
:1002A9002590E682E0FF74C04FF090E6817401F07A
:1002B90043870100000000000000E50D702090E672
:1002C90082E0FF30E60890E682E0FF20E0D390E686
:1002D90082E0FF30E70890E682E0FF20E1C390E684
:1002E90082E0FF30E60890E682E0FF20E01090E629
:1002F90082E0FF30E72690E682E0FF30E11E9000C1
:10030900051214A790E680E0FF74014FF090000FEA
:100319001214A790E680E0FF74FE5FF01204D30286
:100329000286C0E0C082C083C007C0D075D000D2A9
:1003390003AF9174EF5FF59190E65D7408F0D0D04A
:10034900D007D083D082D0E032C2DC32C0E0C08294
:10035900C083C007C0D075D000D200AF9174EF5FE1
:10036900F59190E65D7401F0D0D0D007D083D082AA
:10037900D0E032C0E0C082C083C007C0D075D000D1
:10038900D202AF9174EF5FF59190E65D7410F0D0F1
:10039900D0D007D083D082D0E032C0E0C082C08301
:1003A900C007C0D075D000D201AF9174EF5FF5914D
:1003B90090E65D7420F0D0D0D007D083D082D0E011
:0103C9003201
:0A021A00750800750900C204C20552
:1003CA0090E6007416F00000000090E60174DAF07E
:1003DA0075129D75131575148090151D75F0801290
:1003EA00114E90E61274A2F00000000090E6147418
:1003FA00E2F00000000090E61374A0F00000000094
:10040A0090E61574E0F00000000090E6047480F0B5
:10041A000000000090E6047402F00000000090E67C
:10042A00047404F00000000090E6047406F0000072
:10043A00000090E6047408F00000000090E604E46E
:10044A00F00000000090E618E4F00000000090E6DA
:10045A0019E4F00000000090E6187410F0000000A3
:10046A000090E6197410F00000000090E61A740873
:10047A00F00000000090E61B7408F00000000090F5
:10048A00E6497482F00000000090E6497482F000A8
:10049A0000000090E6497484F00000000090E649EC
:1004AA007484F00000000090E6D27401F0000000AD
:1004BA000090E670E4F075B2037580DE90E65CE0C9
:1004CA00FF74024FF0750D0122300441E5BB30E79D
:1004DA003CE5AB20E1373085340000000090E6CFE0
:1004EA007405F00000000090E6D07432F0000000BD
:1004FA000090E6D1747BF00000000075BB0000009C
:10050A000000E5BB30E7FB00000000C20422758250
:10051A000022E508AD12AE13AF148D828E838FF0E0
:10052A00E50912113375820122858208851209753F
:10053A00820122850A8222AF828F0ABF014200000D
:10054A00000090E6247402F00000000090E625E422
:10055A00F00000000090E626E4F00000000090E6BB
:10056A00277406F00000000090E6367408F00000D8
:10057A00000090E6377403F000000000D2058040C6
:10058A000000000090E624E4F00000000090E62558
:10059A007440F00000000090E626E4F0000000003D
:1005AA0090E6277406F00000000090E6367408F022
:1005BA000000000090E6377403F000000000C20556
:1005CA0075820122AF8290E6BBE0FD7E0090E6BA1A
:1005DA00E07B004206EB420590E6BFE0FB7C009020
:1005EA00E6BEE0F97A004204EA4203BFB202800F93
:1005FA00BFB303020702BFB4030208060208E6906B
:10060A00E6A0E0FF74804FF075129D7513157514FE
:10061A008090151D75F08012114E90E61274A2F0AA
:10062A000000000090E61474E2F00000000090E67A
:10063A001374A0F00000000090E61574E0F00000CA
:10064A00000090E6047480F00000000090E6047454
:10065A0002F00000000090E6047404F000000000BC
:10066A0090E6047406F00000000090E6047408F0B6
:10067A000000000090E604E4F00000000090E61894
:10068A00E4F00000000090E619E4F0000000009099
:10069A00E6187430F00000000090E6197430F0009B
:1006AA0000000090E61A7408F00000000090E61BB3
:1006BA007408F00000000090E6497482F00000001F
:1006CA000090E6497482F00000000090E6497484C4
:1006DA00F00000000090E6497484F0000000005326
:1006EA0080FD00000000D2049003E81214A74380A2
:1006FA0002000000000208EA90E6A0E0FF74804FC2
:10070A00F00000000090E6007414F0C20490E602C3
:10071A007498F00000000090E60374E7F00000000F
:10072A000090E670E0FF74804FF090E60174E3F009
:10073A000000000090E61274A2F00000000090E6AB
:10074A001474E2F00000000090E61374A0F00000B8
:10075A00000090E61574E0F00000000090E60474D2
:10076A0080F00000000090E6047402F0000000002F
:10077A0090E6047404F00000000090E6047406F0A9
:10078A000000000090E6047408F00000000090E603
:10079A0004E4F00000000090E6497482F0000000D2
:1007AA000090E6497482F00000000090E6497484E3
:1007BA00F00000000090E6497484F0000000009008
:1007CA00E618E4F00000000090E619E4F0000000EA
:1007DA000090E6187411F00000000090E6197411F8
:1007EA00F00000000090E61A744DF000000000903E
:1007FA00E61B744DF0000000000208EA90E6B8E03B
:10080A00FFBF40028074BFC00280030208DEEC4BC7
:10081A0070030208E2C374409CE49B50067A407F4E
:10082A000080048C028B0790E6A0E0FF20E1F88AA2
:10083A00447545007546407547E77548008E428DF8
:10084A0043758250C006C005C004C003C002120C22
:10085A00C4D002D003D004D005D00690E68AE4F0D2
:10086A000000000090E68BEAF07F00ECC39AFCEBF4
:10087A009FFBEA2EFEEF3DFD8094EC4B605A90E61A
:10088A008BE4F090E6A0E0FF20E1F890E68BE0FF31
:10089A008F37753800753940753AE7753B008E35E4
:1008AA008D36758250C007C006C005C004C0031249
:1008BA000C2EE582D003D004D005D006D0077003F1
:1008CA00F582227A00EF2EFEEA3DFDECC39FFCEB97
:1008DA009AFB80A675820022758201227582012206
:1008EA0075820022C0E0C082C083C007C0D075D024
:1008FA0000AF9174EF5FF59190E65D7402F0D0D08D
:10090A00D007D083D082D0E0323232323232323221
:10091A0032323232323232323232323232323232AD
:0E092A00323232323232323232323232323203
:10151D0001010101010101070000000000000000B0
:10152D000404040404040404000000000000003F4F
:10153D000101010101010107000000000000000090
:10154D000404040404040404000000000000003F2F
:10155D000101010101010107000000000000000070
:10156D000404040404040404000000000000003F0F
:10157D00B801010101010107070202020202020086
:10158D000000000000000004750000000000003F96
:07159D00E0100004DA4E002B
:103E000012010002FFFFFF40D01607080000010268
:103E100000010A060002FFFFFF40010009022E0018
:103E200001010080FA0904000004FFFFFF000705FC
:103E300002020002000705040200020007058602D4
:103E40000002000705880200020009022E0001019D
:103E50000080FA0904000004FFFFFF0007050202CA
:103E600040000007050402400000070586024000EC
:103E70000007058802400000040309041A035300E8
:103E800063006F0070006500660075006E002E0014
:103E900063006F006D0032034F00700065006E001C
:103EA000200073006F007500720063006500200041
:103EB0006F007300630069006C006C006F0073009A
:0A3EC00063006F0070006500000051
:10093800AF82E5262521F52BE5273522F52C903CBD
:1009480000E4F0EF2FFF752D02903C00E0FB6004FF
:100958007582002290E678E0FB74804BF0E0FB3073
:10096800E20C90000AC0071214A7D00780DB90E6BB
:1009780079EFF090E678E0FB20E007903C00E0FBA0
:1009880060F1903C00E0FB60047582002290E678FC
:10099800E0FB20E2B490E678E0FB20E13790E678CF
:1009A800E0FB74404BF090E678E0FB30E607903CC3
:1009B80000E0FB60F1903C00E0FB600475820022DF
:1009C800D52D047582002290000AC0071214A7D002
:1009D800070209517A007B00C3EA952BEB952C405E
:1009E80003020A7EC3EA9521EB95225016EA2523D5
:1009F800F8EB3524F9AC25888289838CF01214FD34
:100A0800FC801DEAC39521F8EB9522F9E82528F822
:100A1800E93529F9AE2A888289838EF01214FDFC03
:100A280090E679ECF00ABA00010B90E678E0FE2037
:100A3800E007903C00E0FE60F1903C00E0FE6004BE
:100A48007582002290E678E0FE30E20302095190B8
:100A5800E678E0FE30E1030209E090E678E0FF7412
:100A6800404FF090E678E0FF30E607903C00E0FF6A
:100A780060F17582002290E678E0FF74404FF090B4
:100A8800E678E0FF30E607903C00E0FF60F1903C3C
:100A980000E0FF60047582002275820122AF829017
:100AA8003C00E4F0EF2FFF4307017401B52E08E482
:100AB800B52F0474018001E4FE903C00E0FD600461
:100AC800758200227C007D0090E678E0FB74804B04
:100AD800F0E0FB30E21090000AC007C0061214A72D
:100AE800D006D00780D390E679EFF090E678E0FB67
:100AF80020E007903C00E0FB60F1903C00E0FB60E8
:100B0800047582002290E678E0FB20E2AC90E6785B
:100B1800E0FB20E11C90E678E0FB74404BF090E6A7
:100B280078E0FB30E607903C00E0FB60F17582005E
:100B380022EE600990E678E0FB74204BF090E679AD
:100B4800E0E4F533F53474012533F8E43534F9C3BA
:100B5800E8952EE9952F506A90E678E0F920E007AD
:100B6800903C00E0F960F1903C00E0F96004758287
:100B7800002290E678E0F930E203020AC174022507
:100B880033F8E43534F9E8B52E0DE9B52F0990E6C8
:100B980078E0F9742049F0A833A9340533E4B53373
:100BA800020534AC33AD34E82530F8E93531F9AB1A
:100BB8003290E679E0FA888289838BF01211330249
:100BC8000B4E90E678E0FB20E007903C00E0FB60ED
:100BD800F1903C00E0FB60047582002290E678E02A
:100BE800FB30E203020AC190E678E0FF74404FF060
:100BF800EC2530FCED3531FDAF3290E679E0FE8C26
:100C0800828D838FF012113390E678E0FF30E6078B
:100C1800903C00E0FF60F1903C00E0FF60047582CA
:100C280000227582012285823CE4F540F541AB350E
:100C3800AC36C3E5409537E54195384003020CC012
:100C48007A0090E678E0FF30E4067A018C078F3D61
:100C58008A070AEF243DF98B06A7068A070AEF24BC
:100C68003DF9AE40AF410540E4B540020541EE25EF
:100C780039FEEF353AFFAD3B8E828F838DF012142B
:100C8800FDF78A2175220075233D752400752540DE
:100C9800E4F526F527F528F529F52A853C82C004D0
:100CA800C003120938E582D003D0047003F582220C
:100CB8000BBB00010C020C3A75820122AF827E0048
:100CC80090E678E0FD30E4067E01AD438D498E055F
:100CD8000EED2449F9AC42A7048E21752200752334
:100CE80049752400752540E4F526F527F528F529EA
:100CF800F52A8F82C007120938E582D0077003F5FC
:100D0800822285442E85452F854630854731854882
:100D1800328F82120AA5E5827003F582227582015C
:010D280022A8
:0601E800E478FFF6D8FDEB
:10022400750C00750D00750E4A750F3E75101C7522
:02023400113E79
:100D290090E6B9E0FF24F45003020E2FEF240A8362
:100D3900F582EF241083F583E4735B712F872F2FDE
:100D49009D2FADC4DC100D0D0E0D0E0E0D0E0D0DEB
:100D59000D0E120EA9E5826003020E4590E6A0E091
:100D6900FF74014FF0020E45120F32E58260030253
:100D79000E4590E6A0E0FF74014FF0020E45120FF8
:100D89009EE5826003020E4590E6A0E0FF74014FE4
:100D9900F0020E45120518E5826003020E45121095
:100DA9004A020E4512053DAF8290E740EFF090E60A
:100DB9008AE4F090E68B04F0020E4590E6BAE0F57D
:100DC90082120541E582707490E6A0E0FF74014F3C
:100DD900F0806990E6BCE0FF75120B75130075147D
:100DE900408F8212051CE582700B90E6A0E0FF742B
:100DF900014FF0804790E740E50BF090E68AE4F078
:100E090090E68B04F0803590E6BCE0FF90E6BAE00E
:100E1900F5128F82120533E582702190E6A0E0FF7A
:100E290074014FF0801690E6B9E0F5821205CEE51F
:100E390082700990E6A0E0FF74014FF090E6A0E00F
:100E4900FF74804FF022AF828F0653067FEE24F79E
:100E59005003020EA5EE240A83F582EE240D83F5D4
:100E690083E4737E8295A599A59DA5A10E0E0E0E0C
:100E79000E0E0E0E0E90E6A022EF30E7067EA27F40
:100E8900E680047EA17FE68E828F832290E6A322EC
:100E990090E6A42290E6A52290E6A62290000022E0
:100EA90090E6B8E0FFBF8002801FBF81028005BFC6
:100EB900826F803490E740E4F090E741F090E68A51
:100EC900F090E68B7402F0805CE50D25E0FFE50CFF
:100ED900420790E740EFF090E741E4F090E68AF0AE
:100EE90090E68B7402F0803D90E6BCE0F582120E2C
:100EF9004FAE82AF83EE4F7003F582228E828F83CD
:100F0900E0FE30E0047F0180027F0090E740EFF0CF
:100F190090E741E4F090E68AF090E68B7402F08065
:100F290004758200227582012290E6B8E0FF60050F
:100F3900BF0255801190E6BAE0FFBF0105750D00AB
:100F4900804F7582002290E6BAE0703890E6BCE0E6
:100F5900F582120E4FAE82AF83E0FD5305FE8E82FD
:100F69008F83EDF090E6BCE0FF53070F90E6BCE0FD
:100F79005480C423541FFE90E6832FF0E0FF7420B1
:100F89004FF0800D7582002290E6B9E0F5820205E6
:100F9900CE7582012290E6B8E0FF6005BF026A8043
:100FA9001B90E6BAE0FFBF0202806790E6BAE0FF55
:100FB900BF0105750D01805A7582002290E6BAE0DD
:100FC900704390E6BCE0F582120E4FAE82AF83EE1D
:100FD9004F7003F582228E828F83E0FD4305018ED7
:100FE900828F83EDF090E6BCE0FF53070F90E6BCDB
:100FF900E05480C423541FFE90E6832FF0E0FF7471
:10100900204FF0800D7582002290E6B9E0F582024A
:1010190005CE75820122AF82D20610AF02C206EF59
:10102900600E750E1C750F3E75104A75113E800CC9
:10103900750E4A750F3E75101C75113EA20692AFCA
:101049002290E6BBE0FFBF01028019BF020280299E
:10105900BF03028033BF0603021105BF0703021154
:101069001A0211297E007F3E8F0690E6B3EEF07ECC
:10107900007F3E90E6B4EEF022AF0F90E6B3EFF0BA
:10108900AE0E90E6B4EEF0227D787E3E7F8090E64B
:10109900BAE0F5127B008B020BEAB5120280428D91
:1010A900008E018F028D828E838FF01214FD28F835
:1010B900E439F9880589068A0774012DF9E43EFAAD
:1010C9008F0489828A838CF01214FDF9B903028096
:1010D900067D007E007F00ED4E6006C3E5129B5041
:1010E900B5ED4E600D8E0790E6B3EFF090E6B4EDE6
:1010F900F02290E6A0E0FF74014FF0227E127F3EBD
:101109008F0690E6B3EEF07E127F3E90E6B4EEF0E5
:1011190022AF1190E6B3EFF0AE1090E6B4EEF022F4
:0A11290090E6A0E0FF74014FF022F1
:1001C6007900E94400601B7A009015A478017592C5
:1001D6003CE493F2A308B800020592D9F4DAF2756A
:0201E60092FF86
:1011330020F71130F6138883A88220F509F6A883D7
:101143007583002280FEF280F5F022858215858367
:101153001685F01790E601E0FC74FC5CF0E0FC748B
:10116300024CF090E6F574FFF0AA12AB13AC148AAC
:10117300828B838CF01214FD90E6F3F074012AF84D
:10118300E43BF98C07888289838FF01214FDF89071
:10119300E6C3F074022AFDE43BFE8C078D828E8346
:1011A3008FF01214FD90E6C1F074032AFDE43BFEB8
:1011B3008C078D828E838FF01214FD90E6C2F0743B
:1011C300052AFDE43BFE8C078D828E838FF012147B
:1011D300FD90E6C0F074062AFAE43BFB8A828B8317
:1011E3008CF01214FDFA90E6F4F075AF07AD15AE6E
:1011F300168E078F9A7E008D9B759DE48E9E7F00D1
:1012030090E67BE0FE90E67CF00FBF800040F1901B
:10121300E67174FFF0F5B490E672E0FF74804FF06E
:1012230043B6800000000090E6C4E4F00000000034
:1012330090E6C5E4F090E6C6F090E6C7F090E6C805
:10124300F090E6C9F090E6CAF090E6CBF090E6CCD9
:10125300F090E6CDF022AD82AE83AFF0E51275F0EB
:1012630009A4FC2DF9E43EFA8F0389828A838BF06B
:101273001214FD90E6C6F07B0074012CF9E43BFAEE
:10128300E92DF9EA3EF88F02898288838AF01214E5
:10129300FD90E6C7F074022CF9E43BFAE92DF9EA74
:1012A3003EF88F02898288838AF01214FD90E6C883
:1012B300F074032CF9E43BFAE92DF9EA3EF88F02C6
:1012C300898288838AF01214FD90E6C9F074042C95
:1012D300F9E43BFAE92DF9EA3EF88F028982888323
:1012E3008AF01214FD90E6CAF074052CF9E43BFA77
:1012F300E92DF9EA3EF88F02898288838AF0121475
:10130300FD90E6CBF074062CF9E43BFAE92DF9EAFB
:101313003EF88F02898288838AF01214FD90E6CC0E
:10132300F074072CFCE43BFBEC2DFDEB3EFE8D82C1
:101333008E838FF01214FD90E6CDF022AC82AD8344
:10134300AEF0FF8E028F038B0190E6CEE9F0000032
:1013530000007B0090E6CFEAF0000000007E008DE5
:101363000790E6D0EFF00000000090E6D1ECF02209
:10137300AE82AF838F0590E6D0EDF00000000090C1
:10138300E6D1EEF02285821485831585F016E5BB40
:1013930030E7FB90E6F1E0FC7B0085148285158342
:1013A3008516F0EC121133A3EB121133E51224FF6F
:1013B300FBE51334FFFC7A008A007900C3E8951239
:1013C300E99513506EE5BB30E7FBEA75F002A425FF
:1013D30014F8E51535F0F9AF16AEBD7D00888289A6
:1013E300838FF0ED121133A3EE121133881789188E
:1013F3008F19888289838FF01214FDFEA31214FDC6
:10140300FF8A017D00E9B50308EDB50404ADBF8093
:1014130002ADBE8D017D00E94206ED4207851782CC
:101423008518838519F0EE121133A3EF1211330AD5
:101433000213BB2285821485831585F0167C008CEC
:10144300027B00C3EA9512EB95135040E5BB30E7EE
:10145300FBEC75F002A42514F9E51535F0FAAB168B
:1014630089828A838BF01214FDA31214FDFFF89076
:10147300E6F0E8F089828A838BF01214FDF9A31257
:1014830014FD7A0090E6F1E9F00C80B322AF82E517
:10149300BB30E7FB74044FF5BB22AF82E5BB30E7FB
:0414A300FB8FBB22DE
:03004300023F0079
:103F0000020355000208EE000209130002032B0011
:103F100002037C000203A300020914000209290025
:103F2000020915000209160002091700020918000B
:103F30000209190002091A0002091B0002091C00EB
:103F400002091D000209290002091E0002091F00C2
:103F500002092000020921000209220002092300AF
:103F60000209240002092900020929000209290086
:103F7000020925000209260002092700020928007B
:103F800002092A0002092B0002092C0002092D0057
:103F900002092E0002092F00020930000209310037
:103FA0000209320002093300020934000209350017
:083FB000020936000209370086
:1001EE007800E84400600A790075923CE4F309D87F
:1001FE00FC7801E84400600C7901903C00E4F0A327
:04020E00D8FCD9FA45
:1014A700AE82AF8390E600E05418C423541FFDB406
:1014B7000100E433FD60067CB17D00801C90E600EE
:1014C700E05418C423541FFBBB01067A617B0180DB
:1014D700047AC27B028A048B058C128D1315127451
:1014E700FFB512021513E512451370F11EBEFF0179
:0614F7001FEE4F70E4221D
:0D01B90075814A121519E58260030201B636
:1014FD0020F71430F6148883A88220F507E6A88318
:10150D0075830022E280F7E49322E02275820022A7
:00000001FF
